S0170000537461636A61506F6D6961726F77612E7372656308
S11300000C9434000C943E000C943E000C943E007E
S11300100C943E000C943E000C943E000C943E0064
S11300200C943E000C943E000C943E000C943E0054
S11300300C943E000C943E000C943E000C943E0044
S11300400C943E000C943E000C943E000C943E0034
S11300500C943E000C943E000C943E000C943E0024
S11300600C943E000C943E0011241FBECFEFD8E048
S1130070DEBFCDBF0E94BF010C9404040C940000A9
S1130080CF93DF93CDB7DEB78CE790E020E4FC019B
S113009020838AE790E027E8FC0120830000DF91B9
S11300A0CF910895CF93DF9300D000D01F92CDB7A6
S11300B0DEB78D8319821A821B821C828CE790E042
S11300C02CE730E0F90130812D81232BFC012083C2
S11300D08AE790E02AE730E0F90120812064FC01FE
S11300E0208300008AE790E0FC018081882F90E063
S11300F080719927892BB1F78AE790E02AE730E0ED
S1130100F90120812061FC01208388E790E0FC0153
S11301108081882F90E0A0E0B0E089839A83AB834C
S1130120BC8389E790E0FC018081882F90E0982FC0
S11301308827092E000CAA0BBB0B29813A814B811D
S11301405C81822B932BA42BB52B89839A83AB835D
S1130150BC8389819A81AB81BC81BC01CD010F90A4
S11301600F900F900F900F90DF91CF910895CF9340
S1130170DF9300D000D01F92CDB7DEB78D838AE223
S113018090E02FE3FC0120838BE290E02BE230E04F
S1130190F90120812063FC0120838BE290E02BE2B3
S11301A030E0F9012081207F3D8132953F70232B7F
S11301B0FC0120838BE290E02BE230E0F901208106
S11301C02F7EFC01208388E893E19A8389838981C7
S11301D09A810197F1F79A8389838BE290E02BE26D
S11301E030E0F90120812061FC0120838BE290E062
S11301F02BE230E0F9012081322F307F2D812F70E6
S1130200232BFC0120838BE290E02BE230E0F90108
S113021020812F7EFC01208388E893E19C838B83DB
S11302208B819C810197F1F79C838B838BE290E017
S11302302BE230E0F90120812061FC0120830000E1
S11302400F900F900F900F900F90DF91CF91089522
S1130250CF93DF9300D000D01F92CDB7DEB78D834C
S11302608AE290E02FE3FC0120838BE290E02BE212
S113027030E0F90120812F7DFC0120838BE290E0A6
S11302802BE230E0F90120812061FC0120838BE224
S113029090E02BE230E0F9012081207F3D8132950E
S11302A03F70232BFC0120838BE290E02BE230E0B3
S11302B0F90120812F7EFC01208388EA91E69A834C
S11302C0898389819A810197F1F79A8389838BE2E3
S11302D090E02BE230E0F90120812061FC012083D1
S11302E08BE290E02BE230E0F9012081322F307F65
S11302F02D812F70232BFC0120838BE290E02BE2D5
S113030030E0F90120812F7EFC01208388EA91E608
S11303109C838B838B819C810197F1F79C838B83D6
S11303208BE290E02BE230E0F90120812061FC01B6
S1130330208300000F900F900F900F900F90DF918B
S1130340CF910895CF93DF93CDB7DEB783E30E94B7
S1130350280182E30E94280188E20E94280188E0A3
S11303600E94280181E00E94280186E00E94280161
S11303708FE00E9428010000DF91CF910895CF9370
S1130380DF93CDB7DEB7EA970FB6F894DEBF0FBEA2
S1130390CDBF0E94A2010E94400081E00E9428017A
S11303A080E00E945200DC01CB0189839A83AB83F5
S11303B0BC8329813A814B815C8180E593ECDC012B
S11303C00E949E03DC01CB01BB2324F481509C4F8B
S11303D0AF4FBF4F072E7AE0B595A79597958795B0
S11303E07A95D1F7702D89839A83AB83BC83AE0150
S11303F04D5E5F4F89819A81AB81BC812AE030E0F8
S1130400BC01CD010E94B8038B890E94B7008C897E
S11304100E94B7008CE20E94B7008D890E94B70049
S113042080E090E0A8ECB2E48D839E83AF83B8872C
S113043020E030E04AE755E46D817E818F81988524
S11304400E940903DC01CB0189879A87AB87BC87AB
S113045020E030E040E85FE369857A858B859C8500
S11304600E94830288232CF481E090E09E878D878C
S11304703FC020E03FEF4FE757E469857A858B85DD
S11304809C850E94040318164CF520E030E040E2FD
S113049051E46D817E818F8198850E940903DC017E
S11304A0CB01BC01CD010E948802DC01CB019E87F7
S11304B08D870FC080E991E0988B8F878F8598890D
S11304C00197F1F7988B8F878D859E8501979E877D
S11304D08D878D859E85892B69F714C069857A85FA
S11304E08B859C850E948802DC01CB019E878D87C9
S11304F08D859E859A8B898B89899A890197F1F7D5
S11305009A8B898B4ACF0E94B70208F481E0089540
S11305100E94E30288F09F5798F0B92F9927B751AA
S1130520B0F0E1F0660F771F881F991F1AF0BA9593
S1130530C9F714C0B13091F00E94FD02B1E00895F2
S11305400C94FD02672F782F8827B85F39F0B93FE4
S1130550CCF3869577956795B395D9F73EF4909546
S11305608095709561957F4F8F4F9F4F0895990F98
S11305700008550FAA0BE0E8FEEF16161706E80769
S1130580F907C0F012161306E407F50798F0621B8A
S1130590730B840B950B39F40A2661F0232B242B5F
S11305A0252B21F408950A2609F4A140A6958FEF7E
S11305B0811D811D089557FD9058440F551F59F012
S11305C05F3F71F04795880F97FB991F61F09F3F3C
S11305D079F087950895121613061406551FF2CF65
S11305E04695F1DF08C0161617061806991FF1CFB5
S11305F086957105610508940895E894BB276627DC
S11306007727CB0197F908950E94B70208F48FEF7A
S113061008950E941C030C948D030E947F0338F0FC
S11306200E94860320F0952311F00C9476030C9419
S11306307C0311240C94FE020E94DB0270F3959F4C
S1130640C1F3950F50E0551F629FF001729FBB27C5
S1130650F00DB11D639FAA27F00DB11DAA1F649F61
S11306606627B00DA11D661F829F2227B00DA11D14
S1130670621F739FB00DA11D621F839FA00D611D9A
S1130680221F749F3327A00D611D231F849F600DBB
S1130690211D822F762F6A2F11249F5750409AF0E4
S11306A0F1F088234AF0EE0FFF1FBB1F661F771F70
S11306B0881F91505040A9F79E3F510580F00C943B
S11306C076030C94FE025F3FE4F3983ED4F38695E0
S11306D077956795B795F795E7959F5FC1F7FE2BDB
S11306E0880F911D9695879597F9089597F99F67B7
S11306F080E870E060E008959FEF80EC08950024A6
S11307000A941616170618060906089500240A9472
S113071012161306140605060895092E0394000CF8
S113072011F4882352F0BB0F40F4BF2B11F460FF87
S113073004C06F5F7F4F8F4F9F4F08950E94A9039E
S1130740A59F900DB49F900DA49F800D911D112421
S11307500895A29FB001B39FC001A39F700D811D96
S11307601124911DB29F700D811D1124911D0895B6
S11307702532310520F4223010F00C94C303FA0121
S11307801082CA010895BB272A3051F4992342F4F8
S1130790BDE290958095709561957F4F8F4F9F4FE7
S11307A00C94D303BB27FA01A62F621771058105A8
S11307B09105330B30FB66F0AA27660F771F881F5D
S11307C0991FAA1FA21710F0A21B63953850A9F70E
S11307D0A05DAA3308F0A95DA19336F7B111B193D6
S11307E01082CA010C94F403DC01FC01672F71919F
S11307F07723E1F7329704C07C916D937083629103
S10F0800AE17BF07C8F30895F894FFCFAB
S9030000FC
