S0170000537461636A61506F6D6961726F77612E7372656308
S11300000C9434000C943E000C943E000C943E007E
S11300100C943E000C943E000C943E000C943E0064
S11300200C943E000C943E000C943E000C943E0054
S11300300C943E000C943E000C943E000C943E0044
S11300400C943E000C943E000C943E000C943E0034
S11300500C943E000C943E000C943E000C943E0024
S11300600C943E000C943E0011241FBECFEFD8E048
S1130070DEBFCDBF0E94E9000C948A020C940000FC
S1130080CF93DF93CDB7DEB78CE790E020E4FC019B
S113009020838AE790E027E8FC0120830000DF91B9
S11300A0CF910895CF93DF9300D000D01F92CDB7A6
S11300B0DEB78D838AE290E02FE3FC0120838BE29C
S11300C090E02BE230E0F90120812F7DFC012083B8
S11300D08BE290E02BE230E0F90120812061FC0109
S11300E020838BE290E02BE230E0F9012081207F35
S11300F03D8132953F70232BFC0120838BE290E0FD
S11301002BE230E0F90120812F7EFC01208388EA74
S113011091E69A83898389819A810197F1F79A8379
S113012089838BE290E02BE230E0F90120812061A9
S1130130FC0120838BE290E02BE230E0F901208186
S1130140322F307F2D812F70232BFC0120838BE2F3
S113015090E02BE230E0F90120812F7EFC01208326
S113016088EA91E69C838B838B819C810197F1F7CC
S11301709C838B838BE290E02BE230E0F9012081B9
S11301802061FC01208300000F900F900F900F90CE
S11301900F90DF91CF910895CF93DF93CDB7DEB762
S11301A083E30E94520082E30E94520088E20E948C
S11301B0520088E00E94520081E00E94520086E0D2
S11301C00E9452008FE00E9452000000DF91CF9104
S11301D00895CF93DF93CDB7DEB760970FB6F89449
S11301E0DEBF0FBECDBF0E94CC000E9440001A8229
S11301F0198281E00E94520080E090E0A8ECB2E411
S11302008B839C83AD83BE8320E030E04AE755E4D2
S11302106B817C818D819E810E94F501DC01CB0183
S11302208F839887A987BA8720E030E040E85FE3AE
S11302306F81788589859A850E946F0188232CF4C3
S113024081E090E09C878B873FC020E03FEF4FE741
S113025057E46F81788589859A850E94F001181684
S11302604CF520E030E040E251E46B817C818D81EB
S11302709E810E94F501DC01CB01BC01CD010E94ED
S11302807401DC01CB019C878B870FC080E991E06E
S11302909E878D878D859E850197F1F79E878D8733
S11302A08B859C8501979C878B878B859C85892B67
S11302B069F714C06F81788589859A850E947401D5
S11302C0DC01CB019C878B878B859C85988B8F87E2
S11302D08F8598890197F1F7988B8F878ACF0E9431
S11302E0A30108F481E008950E94CF0188F09F578C
S11302F098F0B92F9927B751B0F0E1F0660F771F46
S1130300881F991F1AF0BA95C9F714C0B13091F03B
S11303100E94E901B1E008950C94E901672F782F58
S11303208827B85F39F0B93FCCF386957795679500
S1130330B395D9F73EF490958095709561957F4F6C
S11303408F4F9F4F0895990F0008550FAA0BE0E8AF
S1130350FEEF16161706E807F907C0F01216130683
S1130360E407F50798F0621B730B840B950B39F4C3
S11303700A2661F0232B242B252B21F408950A2629
S113038009F4A140A6958FEF811D811D089557FDA5
S11303909058440F551F59F05F3F71F04795880FEF
S11303A097FB991F61F09F3F79F087950895121686
S11303B013061406551FF2CF4695F1DF08C0161632
S11303C017061806991FF1CF8695710561050894E3
S11303D00895E894BB2766277727CB0197F90895FA
S11303E00E94A30108F48FEF08950E9408020C9460
S11303F079020E946B0238F00E94720220F0952369
S113040011F00C9462020C94680211240C94EA0119
S11304100E94C70170F3959FC1F3950F50E0551FDB
S1130420629FF001729FBB27F00DB11D639FAA2745
S1130430F00DB11DAA1F649F6627B00DA11D661F94
S1130440829F2227B00DA11D621F739FB00DA11DB5
S1130450621F839FA00D611D221F749F3327A00D6F
S1130460611D231F849F600D211D822F762F6A2F0B
S113047011249F5750409AF0F1F088234AF0EE0F70
S1130480FF1FBB1F661F771F881F91505040A9F79D
S11304909E3F510580F00C9462020C94EA015F3F88
S11304A0E4F3983ED4F3869577956795B795F795D9
S11304B0E7959F5FC1F7FE2B880F911D9695879551
S11304C097F9089597F99F6780E870E060E00895D0
S11304D09FEF80EC089500240A9416161706180658
S11304E00906089500240A94121613061406050634
S11304F00895092E0394000C11F4882352F0BB0FC5
S113050040F4BF2B11F460FF04C06F5F7F4F8F4F27
S10B05109F4F0895F894FFCFFA
S9030000FC
