:100000000C9434000C943E000C943E000C943E0082
:100010000C943E000C943E000C943E000C943E0068
:100020000C943E000C943E000C943E000C943E0058
:100030000C943E000C943E000C943E000C943E0048
:100040000C943E000C943E000C943E000C943E0038
:100050000C943E000C943E000C943E000C943E0028
:100060000C943E000C943E0011241FBECFEFD8E04C
:10007000DEBFCDBF0E9403030C941C050C9400004E
:10008000CF93DF93CDB7DEB78CE790E020E4FC019F
:1000900020838AE790E027E8FC0120830000DF91BD
:1000A000CF910895CF93DF9300D000D01F92CDB7AA
:1000B000DEB78D838CE790E0FC0110828CE790E046
:1000C00020E4FC01208319821A821B821C828CE7A7
:1000D00090E02CE730E0F90130812D81232BFC01E9
:1000E00020838AE790E02AE730E0F901208120644C
:1000F000FC01208300008AE790E0FC018081882FCA
:1001000090E080719927892BB1F78AE790E02AE780
:1001100030E0F90120812061FC01208388E790E034
:10012000FC018081882F90E0A0E0B0E089839A8371
:10013000AB83BC8389E790E0FC018081882F90E04D
:10014000982F8827092E000CAA0BBB0B29813A8116
:100150004B815C81822B932BA42BB52B89839A83B3
:10016000AB83BC8389819A81AB81BC81BC01CD0109
:100170000F900F900F900F900F90DF91CF910895F7
:10018000CF93DF9300D000D01F92CDB7DEB78D8321
:100190008AE290E02FE3FC0120838BE290E02BE2E7
:1001A00030E0F90120812063FC0120838BE290E0A4
:1001B0002BE230E0F9012081207F3D8132953F70B4
:1001C000232BFC0120838BE290E02BE230E0F9014D
:1001D00020812F7EFC01208388E893E19A83898324
:1001E00089819A810197F1F79A8389838BE290E064
:1001F0002BE230E0F90120812061FC0120838BE2B9
:1002000090E02BE230E0F9012081322F307F2D8108
:100210002F70232BFC0120838BE290E02BE230E057
:10022000F90120812F7EFC01208388E893E19C83E3
:100230008B838B819C810197F1F79C838B838BE26D
:1002400090E02BE230E0F90120812061FC01208365
:1002500000000F900F900F900F900F90DF91CF91B3
:100260000895CF93DF9300D000D01F92CDB7DEB7B3
:100270008D838AE290E02FE3FC0120838BE290E003
:100280002BE230E0F90120812F7DFC0120838BE2FD
:1002900090E02BE230E0F90120812061FC01208315
:1002A0008BE290E02BE230E0F9012081207F3D815C
:1002B00032953F70232BFC0120838BE290E02BE2F0
:1002C00030E0F90120812F7EFC01208388EA91E64D
:1002D0009A83898389819A810197F1F79A83898327
:1002E0008BE290E02BE230E0F90120812061FC01FB
:1002F00020838BE290E02BE230E0F9012081322F65
:10030000307F2D812F70232BFC0120838BE290E026
:100310002BE230E0F90120812F7EFC01208388EA66
:1003200091E69C838B838B819C810197F1F79C8361
:100330008B838BE290E02BE230E0F9012081206199
:10034000FC01208300000F900F900F900F900F90F2
:10035000DF91CF910895CF93DF93CDB7DEB783E3DD
:100360000E94310182E30E94310188E20E94310142
:1003700088E00E94310181E00E94310186E00E9404
:1003800031018FE00E9431010000DF91CF9108958B
:10039000CF93DF93CDB7DEB784E290E024E230E084
:1003A000F90120812E7FFC01208385E290E025E287
:1003B00030E0F90120812160FC0120830000DF9101
:1003C000CF910895CF93DF93CDB7DEB768970FB67F
:1003D000F894DEBF0FBECDBF80E00E945200DC016A
:1003E000CB0189839A83AB83BC8329813A814B817A
:1003F0005C8180E593ECDC010E94B604DC01CB015A
:10040000BB2324F481509C4FAF4FBF4F072E7AE09F
:10041000B595A795979587957A95D1F7702D89838E
:100420009A83AB83BC83AE014B5F5F4F89819A8116
:10043000AB81BC812AE030E0BC01CD010E94D00438
:100440008D810E94C0008E810E94C0008CE20E94BB
:10045000C0008F810E94C000000068960FB6F8941B
:10046000DEBF0FBECDBFDF91CF910895CF93DF9355
:10047000CDB7DEB768970FB6F894DEBF0FBECDBF1D
:1004800081E00E945200DC01CB0189839A83AB8317
:10049000BC8329813A814B815C8182E390E0DC015D
:1004A0000E94B604DC01CB01BB2324F481509C4F95
:1004B000AF4FBF4F072E7AE0B595A79597958795D3
:1004C0007A95D1F7702D89839A83AB83BC83AE0173
:1004D0004B5F5F4F89819A81AB81BC812AE030E01C
:1004E000BC01CD010E94D00489819A81AB81BC817D
:1004F0000A97A105B10554F08D810E94C0008CE2DD
:100500000E94C0008E810E94C00009C080E30E944A
:10051000C0008CE20E94C0008D810E94C0000000DB
:1005200068960FB6F894DEBF0FBECDBFDF91CF91B6
:100530000895CF93DF9300D0CDB7DEB79A83898338
:1005400089819A81FC0180819181009719F001973E
:1005500021F006C00E94360203C00E94E2010000A2
:1005600000000F900F90DF91CF910895CF93DF930C
:1005700000D000D0CDB7DEB79A8389837C836B83AC
:1005800083E290E0FC018081882F90E081709927C0
:10059000892B11F58B819C81FC0180819181892BB4
:1005A000D9F48B819C8121E030E0FC0131832083F0
:1005B00089819A81FC0180819181019731F489813F
:1005C0009A81FC011182108207C089819A8121E001
:1005D00030E0FC013183208383E290E0FC018081E4
:1005E000882F90E081709927892B29F08B819C813D
:1005F000FC011182108200000F900F900F900F905D
:10060000DF91CF910895CF93DF93CDB7DEB7629797
:100610000FB6F894DEBF0FBECDBF188A1F8681E0EB
:1006200090E09A8B898B0E94AB010E9440000E944F
:10063000C8019E01215F3F4FCE014196B9010E9442
:10064000B60281E00E943101CE0141960E949902DA
:1006500080E090E0A8ECB2E489839A83AB83BC830A
:1006600020E030E04AE755E469817A818B819C8102
:100670000E942104DC01CB018D839E83AF83B88768
:1006800020E030E040E85FE36D817E818F819885D6
:100690000E949B0388232CF481E090E09A8789874D
:1006A0003FC020E03FEF4FE757E46D817E818F81AF
:1006B00098850E941C0418164CF520E030E040E2BA
:1006C00051E469817A818B819C810E942104DC0143
:1006D000CB01BC01CD010E94A003DC01CB019A87B4
:1006E00089870FC080E991E09C878B878B859C85EB
:1006F0000197F1F79C878B8789859A8501979A875F
:10070000898789859A85892B69F714C06D817E81D7
:100710008F8198850E94A003DC01CB019A8789878D
:1007200089859A859E878D878D859E850197F1F7AE
:100730009E878D877ECF0E94CF0308F481E00895C5
:100740000E94FB0388F09F5798F0B92F9927B75163
:10075000B0F0E1F0660F771F881F991F1AF0BA9565
:10076000C9F714C0B13091F00E941504B1E00895AA
:100770000C941504672F782F8827B85F39F0B93F9C
:10078000CCF3869577956795B395D9F73EF4909518
:100790008095709561957F4F8F4F9F4F0895990F6A
:1007A0000008550FAA0BE0E8FEEF16161706E8073B
:1007B000F907C0F012161306E407F50798F0621B5C
:1007C000730B840B950B39F40A2661F0232B242B31
:1007D000252B21F408950A2609F4A140A6958FEF50
:1007E000811D811D089557FD9058440F551F59F0E4
:1007F0005F3F71F04795880F97FB991F61F09F3F0E
:1008000079F087950895121613061406551FF2CF36
:100810004695F1DF08C0161617061806991FF1CF86
:1008200086957105610508940895E894BB276627AD
:100830007727CB0197F908950E94CF0308F48FEF33
:1008400008950E9434040C94A5040E94970438F083
:100850000E949E0420F0952311F00C948E040C94B9
:10086000940411240C9416040E94F30370F3959FD2
:10087000C1F3950F50E0551F629FF001729FBB2797
:10088000F00DB11D639FAA27F00DB11DAA1F649F33
:100890006627B00DA11D661F829F2227B00DA11DE6
:1008A000621F739FB00DA11D621F839FA00D611D6C
:1008B000221F749F3327A00D611D231F849F600D8D
:1008C000211D822F762F6A2F11249F5750409AF0B6
:1008D000F1F088234AF0EE0FFF1FBB1F661F771F42
:1008E000881F91505040A9F79E3F510580F00C940D
:1008F0008E040C9416045F3FE4F3983ED4F386957F
:1009000077956795B795F795E7959F5FC1F7FE2BAC
:10091000880F911D9695879597F9089597F99F6788
:1009200080E870E060E008959FEF80EC0895002477
:100930000A941616170618060906089500240A9444
:1009400012161306140605060895092E0394000CCA
:1009500011F4882352F0BB0F40F4BF2B11F460FF59
:1009600004C06F5F7F4F8F4F9F4F08950E94C10457
:10097000A59F900DB49F900DA49F800D911D1124F3
:100980000895A29FB001B39FC001A39F700D811D68
:100990001124911DB29F700D811D1124911D089588
:1009A0002532310520F4223010F00C94DB04FA01DA
:1009B0001082CA010895BB272A3051F4992342F4CA
:1009C000BDE290958095709561957F4F8F4F9F4FB9
:1009D0000C94EB04BB27FA01A62F62177105810561
:1009E0009105330B30FB66F0AA27660F771F881F2F
:1009F000991FAA1FA21710F0A21B63953850A9F7E0
:100A0000A05DAA3308F0A95DA19336F7B111B193A7
:100A10001082CA010C940C05DC01FC01672F719156
:100A20007723E1F7329704C07C916D9370836291D4
:0C0A3000AE17BF07C8F30895F894FFCF7D
:00000001FF
